{
  "contractName": "AddPeopleContract",
  "abi": [
    {
      "inputs": [],
      "stateMutability": "nonpayable",
      "type": "constructor"
    },
    {
      "inputs": [
        {
          "internalType": "address",
          "name": "",
          "type": "address"
        }
      ],
      "name": "balance",
      "outputs": [
        {
          "internalType": "uint256",
          "name": "",
          "type": "uint256"
        }
      ],
      "stateMutability": "view",
      "type": "function",
      "constant": true
    },
    {
      "inputs": [
        {
          "internalType": "uint256",
          "name": "",
          "type": "uint256"
        }
      ],
      "name": "people",
      "outputs": [
        {
          "internalType": "uint256",
          "name": "id",
          "type": "uint256"
        },
        {
          "internalType": "string",
          "name": "name",
          "type": "string"
        },
        {
          "internalType": "string",
          "name": "lastname",
          "type": "string"
        },
        {
          "internalType": "uint256",
          "name": "wealth",
          "type": "uint256"
        },
        {
          "internalType": "uint256",
          "name": "numberOfFriends",
          "type": "uint256"
        }
      ],
      "stateMutability": "view",
      "type": "function",
      "constant": true
    },
    {
      "inputs": [
        {
          "internalType": "uint256",
          "name": "_valor",
          "type": "uint256"
        }
      ],
      "name": "addingNewAdress",
      "outputs": [],
      "stateMutability": "nonpayable",
      "type": "function"
    },
    {
      "inputs": [
        {
          "internalType": "uint256",
          "name": "_id",
          "type": "uint256"
        },
        {
          "internalType": "string",
          "name": "_name",
          "type": "string"
        },
        {
          "internalType": "string",
          "name": "_lastname",
          "type": "string"
        },
        {
          "internalType": "uint256",
          "name": "_wealth",
          "type": "uint256"
        },
        {
          "internalType": "uint256",
          "name": "_numberOfFriends",
          "type": "uint256"
        }
      ],
      "name": "addOnePerson",
      "outputs": [
        {
          "internalType": "string",
          "name": "",
          "type": "string"
        }
      ],
      "stateMutability": "nonpayable",
      "type": "function"
    }
  ],
  "bytecode": "0x60806040523480156200001157600080fd5b5060016040518060a001604052806341319c0781526020016040518060400160405280600581526020017f4d6172696f00000000000000000000000000000000000000000000000000000081525081526020016040518060400160405280600781526020017f43756265726f730000000000000000000000000000000000000000000000000081525081526020016103e88152602001600a8152509080600181540180825580915050600190039060005260206000209060050201600090919091909150600082015181600001556020820151816001019081620000f69190620003a5565b5060408201518160020190816200010e9190620003a5565b50606082015181600301556080820151816004015550506200048c565b600081519050919050565b7f4e487b7100000000000000000000000000000000000000000000000000000000600052604160045260246000fd5b7f4e487b7100000000000000000000000000000000000000000000000000000000600052602260045260246000fd5b60006002820490506001821680620001ad57607f821691505b602082108103620001c357620001c262000165565b5b50919050565b60008190508160005260206000209050919050565b60006020601f8301049050919050565b600082821b905092915050565b6000600883026200022d7fffffffffffffffffffffffffffffffffffffffffffffffffffffffffffffffff82620001ee565b620002398683620001ee565b95508019841693508086168417925050509392505050565b6000819050919050565b6000819050919050565b600062000286620002806200027a8462000251565b6200025b565b62000251565b9050919050565b6000819050919050565b620002a28362000265565b620002ba620002b1826200028d565b848454620001fb565b825550505050565b600090565b620002d1620002c2565b620002de81848462000297565b505050565b5b818110156200030657620002fa600082620002c7565b600181019050620002e4565b5050565b601f82111562000355576200031f81620001c9565b6200032a84620001de565b810160208510156200033a578190505b620003526200034985620001de565b830182620002e3565b50505b505050565b600082821c905092915050565b60006200037a600019846008026200035a565b1980831691505092915050565b600062000395838362000367565b9150826002028217905092915050565b620003b0826200012b565b67ffffffffffffffff811115620003cc57620003cb62000136565b5b620003d8825462000194565b620003e58282856200030a565b600060209050601f8311600181146200041d576000841562000408578287015190505b62000414858262000387565b86555062000484565b601f1984166200042d86620001c9565b60005b82811015620004575784890151825560018201915060208501945060208101905062000430565b8683101562000477578489015162000473601f89168262000367565b8355505b6001600288020188555050505b505050505050565b610ad1806200049c6000396000f3fe608060405234801561001057600080fd5b506004361061004c5760003560e01c80639e7a13ad14610051578063c4b93f6f14610085578063ddd7a916146100b5578063e3d670d7146100d1575b600080fd5b61006b600480360381019061006691906103e0565b610101565b60405161007c9594939291906104ac565b60405180910390f35b61009f600480360381019061009a9190610642565b610257565b6040516100ac91906106f5565b60405180910390f35b6100cf60048036038101906100ca91906103e0565b610338565b005b6100eb60048036038101906100e69190610775565b61037e565b6040516100f891906107a2565b60405180910390f35b6001818154811061011157600080fd5b906000526020600020906005020160009150905080600001549080600101805461013a906107ec565b80601f0160208091040260200160405190810160405280929190818152602001828054610166906107ec565b80156101b35780601f10610188576101008083540402835291602001916101b3565b820191906000526020600020905b81548152906001019060200180831161019657829003601f168201915b5050505050908060020180546101c8906107ec565b80601f01602080910402602001604051908101604052809291908181526020018280546101f4906107ec565b80156102415780601f1061021657610100808354040283529160200191610241565b820191906000526020600020905b81548152906001019060200180831161022457829003601f168201915b5050505050908060030154908060040154905085565b606060016040518060a001604052808881526020018781526020018681526020018581526020018481525090806001815401808255809150506001900390600052602060002090600502016000909190919091506000820151816000015560208201518160010190816102ca91906109c9565b5060408201518160020190816102e091906109c9565b50606082015181600301556080820151816004015550506040518060400160405280600a81526020017f486f6c61204d6172696f00000000000000000000000000000000000000000000815250905095945050505050565b806000803373ffffffffffffffffffffffffffffffffffffffff1673ffffffffffffffffffffffffffffffffffffffff1681526020019081526020016000208190555050565b60006020528060005260406000206000915090505481565b6000604051905090565b600080fd5b600080fd5b6000819050919050565b6103bd816103aa565b81146103c857600080fd5b50565b6000813590506103da816103b4565b92915050565b6000602082840312156103f6576103f56103a0565b5b6000610404848285016103cb565b91505092915050565b610416816103aa565b82525050565b600081519050919050565b600082825260208201905092915050565b60005b8381101561045657808201518184015260208101905061043b565b60008484015250505050565b6000601f19601f8301169050919050565b600061047e8261041c565b6104888185610427565b9350610498818560208601610438565b6104a181610462565b840191505092915050565b600060a0820190506104c1600083018861040d565b81810360208301526104d38187610473565b905081810360408301526104e78186610473565b90506104f6606083018561040d565b610503608083018461040d565b9695505050505050565b600080fd5b600080fd5b7f4e487b7100000000000000000000000000000000000000000000000000000000600052604160045260246000fd5b61054f82610462565b810181811067ffffffffffffffff8211171561056e5761056d610517565b5b80604052505050565b6000610581610396565b905061058d8282610546565b919050565b600067ffffffffffffffff8211156105ad576105ac610517565b5b6105b682610462565b9050602081019050919050565b82818337600083830152505050565b60006105e56105e084610592565b610577565b90508281526020810184848401111561060157610600610512565b5b61060c8482856105c3565b509392505050565b600082601f8301126106295761062861050d565b5b81356106398482602086016105d2565b91505092915050565b600080600080600060a0868803121561065e5761065d6103a0565b5b600061066c888289016103cb565b955050602086013567ffffffffffffffff81111561068d5761068c6103a5565b5b61069988828901610614565b945050604086013567ffffffffffffffff8111156106ba576106b96103a5565b5b6106c688828901610614565b93505060606106d7888289016103cb565b92505060806106e8888289016103cb565b9150509295509295909350565b6000602082019050818103600083015261070f8184610473565b905092915050565b600073ffffffffffffffffffffffffffffffffffffffff82169050919050565b600061074282610717565b9050919050565b61075281610737565b811461075d57600080fd5b50565b60008135905061076f81610749565b92915050565b60006020828403121561078b5761078a6103a0565b5b600061079984828501610760565b91505092915050565b60006020820190506107b7600083018461040d565b92915050565b7f4e487b7100000000000000000000000000000000000000000000000000000000600052602260045260246000fd5b6000600282049050600182168061080457607f821691505b602082108103610817576108166107bd565b5b50919050565b60008190508160005260206000209050919050565b60006020601f8301049050919050565b600082821b905092915050565b60006008830261087f7fffffffffffffffffffffffffffffffffffffffffffffffffffffffffffffffff82610842565b6108898683610842565b95508019841693508086168417925050509392505050565b6000819050919050565b60006108c66108c16108bc846103aa565b6108a1565b6103aa565b9050919050565b6000819050919050565b6108e0836108ab565b6108f46108ec826108cd565b84845461084f565b825550505050565b600090565b6109096108fc565b6109148184846108d7565b505050565b5b818110156109385761092d600082610901565b60018101905061091a565b5050565b601f82111561097d5761094e8161081d565b61095784610832565b81016020851015610966578190505b61097a61097285610832565b830182610919565b50505b505050565b600082821c905092915050565b60006109a060001984600802610982565b1980831691505092915050565b60006109b9838361098f565b9150826002028217905092915050565b6109d28261041c565b67ffffffffffffffff8111156109eb576109ea610517565b5b6109f582546107ec565b610a0082828561093c565b600060209050601f831160018114610a335760008415610a21578287015190505b610a2b85826109ad565b865550610a93565b601f198416610a418661081d565b60005b82811015610a6957848901518255600182019150602085019450602081019050610a44565b86831015610a865784890151610a82601f89168261098f565b8355505b6001600288020188555050505b50505050505056fea26469706673582212202cbb8722ac00a2d8710251b8b0210a09daa4b998f34a52c498578e02b58ccd7764736f6c63430008110033",
  "immutableReferences": {},
  "source": "// SPDX-License-Identifier: MIT\r\n\r\npragma solidity ^0.8.6;\r\n\r\ncontract AddPeopleContract {\r\n\r\n    struct People {\r\n        uint256 id;\r\n        string name;\r\n        string lastname;\r\n        uint256 wealth;\r\n        uint256 numberOfFriends;\r\n    }\r\n\r\n    mapping( address => uint256) public balance;\r\n\r\n    function addingNewAdress(uint256 _valor) public {\r\n        balance[msg.sender] = _valor;\r\n    }\r\n\r\n    People[] public people;\r\n    \r\n    constructor(){\r\n        people.push(People(1093770247, \"Mario\", \"Cuberos\", 1000, 10));\r\n    }\r\n\r\n    function addOnePerson(uint _id, string memory _name, string memory _lastname, uint _wealth, uint _numberOfFriends) public returns(string memory) {\r\n        people.push(People(_id, _name, _lastname, _wealth, _numberOfFriends));\r\n        return \"Hola Mario\";\r\n    }\r\n}",
  "sourcePath": "C:\\Users\\mario.cuberos\\Documents\\Solidity\\myfirstproject\\contracts\\02-AddPeopleContract.sol",
  "compiler": {
    "name": "solc",
    "version": "0.8.17+commit.8df45f5f.Emscripten.clang"
  },
  "schemaVersion": "3.4.10",
  "updatedAt": "2022-11-11T01:00:46.741Z",
  "networkType": "ethereum",
  "devdoc": {
    "kind": "dev",
    "methods": {},
    "version": 1
  },
  "userdoc": {
    "kind": "user",
    "methods": {},
    "version": 1
  }
}