{
  "contractName": "TaskContract",
  "abi": [
    {
      "inputs": [],
      "stateMutability": "nonpayable",
      "type": "constructor"
    },
    {
      "anonymous": false,
      "inputs": [
        {
          "indexed": false,
          "internalType": "uint256",
          "name": "id",
          "type": "uint256"
        },
        {
          "indexed": false,
          "internalType": "string",
          "name": "title",
          "type": "string"
        },
        {
          "indexed": false,
          "internalType": "string",
          "name": "description",
          "type": "string"
        },
        {
          "indexed": false,
          "internalType": "bool",
          "name": "done",
          "type": "bool"
        },
        {
          "indexed": false,
          "internalType": "uint256",
          "name": "createdAt",
          "type": "uint256"
        }
      ],
      "name": "TaskCreated",
      "type": "event"
    },
    {
      "anonymous": false,
      "inputs": [
        {
          "indexed": false,
          "internalType": "uint256",
          "name": "id",
          "type": "uint256"
        },
        {
          "indexed": false,
          "internalType": "bool",
          "name": "done",
          "type": "bool"
        }
      ],
      "name": "TaskToggleDone",
      "type": "event"
    },
    {
      "inputs": [],
      "name": "taskCounter",
      "outputs": [
        {
          "internalType": "uint256",
          "name": "",
          "type": "uint256"
        }
      ],
      "stateMutability": "view",
      "type": "function",
      "constant": true
    },
    {
      "inputs": [
        {
          "internalType": "uint256",
          "name": "",
          "type": "uint256"
        }
      ],
      "name": "tasks",
      "outputs": [
        {
          "internalType": "uint256",
          "name": "id",
          "type": "uint256"
        },
        {
          "internalType": "string",
          "name": "title",
          "type": "string"
        },
        {
          "internalType": "string",
          "name": "description",
          "type": "string"
        },
        {
          "internalType": "bool",
          "name": "done",
          "type": "bool"
        },
        {
          "internalType": "uint256",
          "name": "createdAt",
          "type": "uint256"
        }
      ],
      "stateMutability": "view",
      "type": "function",
      "constant": true
    },
    {
      "inputs": [
        {
          "internalType": "string",
          "name": "_title",
          "type": "string"
        },
        {
          "internalType": "string",
          "name": "_description",
          "type": "string"
        }
      ],
      "name": "createTask",
      "outputs": [],
      "stateMutability": "nonpayable",
      "type": "function"
    },
    {
      "inputs": [
        {
          "internalType": "uint256",
          "name": "_id",
          "type": "uint256"
        }
      ],
      "name": "toggleDone",
      "outputs": [],
      "stateMutability": "nonpayable",
      "type": "function"
    }
  ],
  "bytecode": "0x6080604052600080553480156200001557600080fd5b50620000926040518060400160405280601a81526020017f4d69207072696d657220746172656120646520656a656d706c6f0000000000008152506040518060400160405280601481526020017f54656e676f2071756520686163657220616c676f0000000000000000000000008152506200009860201b60201c565b620006a5565b600080815480929190620000ac90620001d9565b91905055506040518060a00160405280600054815260200183815260200182815260200160001515815260200142815250600160008054815260200190815260200160002060008201518160000155602082015181600101908162000112919062000496565b5060408201518160020190816200012a919062000496565b5060608201518160030160006101000a81548160ff021916908315150217905550608082015181600401559050507f6549102bed7d1bb5ec529ee14e2ca60ffc1f47f66d4cc6ca713220613cc64c256000548383600042604051620001949594939291906200063a565b60405180910390a15050565b7f4e487b7100000000000000000000000000000000000000000000000000000000600052601160045260246000fd5b6000819050919050565b6000620001e682620001cf565b91507fffffffffffffffffffffffffffffffffffffffffffffffffffffffffffffffff82036200021b576200021a620001a0565b5b600182019050919050565b600081519050919050565b7f4e487b7100000000000000000000000000000000000000000000000000000000600052604160045260246000fd5b7f4e487b7100000000000000000000000000000000000000000000000000000000600052602260045260246000fd5b60006002820490506001821680620002a857607f821691505b602082108103620002be57620002bd62000260565b5b50919050565b60008190508160005260206000209050919050565b60006020601f8301049050919050565b600082821b905092915050565b600060088302620003287fffffffffffffffffffffffffffffffffffffffffffffffffffffffffffffffff82620002e9565b620003348683620002e9565b95508019841693508086168417925050509392505050565b6000819050919050565b600062000377620003716200036b84620001cf565b6200034c565b620001cf565b9050919050565b6000819050919050565b620003938362000356565b620003ab620003a2826200037e565b848454620002f6565b825550505050565b600090565b620003c2620003b3565b620003cf81848462000388565b505050565b5b81811015620003f757620003eb600082620003b8565b600181019050620003d5565b5050565b601f82111562000446576200041081620002c4565b6200041b84620002d9565b810160208510156200042b578190505b620004436200043a85620002d9565b830182620003d4565b50505b505050565b600082821c905092915050565b60006200046b600019846008026200044b565b1980831691505092915050565b600062000486838362000458565b9150826002028217905092915050565b620004a18262000226565b67ffffffffffffffff811115620004bd57620004bc62000231565b5b620004c982546200028f565b620004d6828285620003fb565b600060209050601f8311600181146200050e5760008415620004f9578287015190505b62000505858262000478565b86555062000575565b601f1984166200051e86620002c4565b60005b82811015620005485784890151825560018201915060208501945060208101905062000521565b8683101562000568578489015162000564601f89168262000458565b8355505b6001600288020188555050505b505050505050565b6200058881620001cf565b82525050565b600082825260208201905092915050565b60005b83811015620005bf578082015181840152602081019050620005a2565b60008484015250505050565b6000601f19601f8301169050919050565b6000620005e98262000226565b620005f581856200058e565b9350620006078185602086016200059f565b6200061281620005cb565b840191505092915050565b60008115159050919050565b62000634816200061d565b82525050565b600060a0820190506200065160008301886200057d565b8181036020830152620006658187620005dc565b905081810360408301526200067b8186620005dc565b90506200068c606083018562000629565b6200069b60808301846200057d565b9695505050505050565b610c8480620006b56000396000f3fe608060405234801561001057600080fd5b506004361061004c5760003560e01c8063292a458514610051578063586717301461006d5780638d9776721461008b578063d81ef739146100bf575b600080fd5b61006b600480360381019061006691906106d0565b6100db565b005b6100756101db565b6040516100829190610761565b60405180910390f35b6100a560048036038101906100a091906107a8565b6101e1565b6040516100b695949392919061086f565b60405180910390f35b6100d960048036038101906100d491906107a8565b610334565b005b6000808154809291906100ed906108ff565b91905055506040518060a0016040528060005481526020018381526020018281526020016000151581526020014281525060016000805481526020019081526020016000206000820151816000015560208201518160010190816101519190610b53565b5060408201518160020190816101679190610b53565b5060608201518160030160006101000a81548160ff021916908315150217905550608082015181600401559050507f6549102bed7d1bb5ec529ee14e2ca60ffc1f47f66d4cc6ca713220613cc64c2560005483836000426040516101cf95949392919061086f565b60405180910390a15050565b60005481565b600160205280600052604060002060009150905080600001549080600101805461020a90610976565b80601f016020809104026020016040519081016040528092919081815260200182805461023690610976565b80156102835780601f1061025857610100808354040283529160200191610283565b820191906000526020600020905b81548152906001019060200180831161026657829003601f168201915b50505050509080600201805461029890610976565b80601f01602080910402602001604051908101604052809291908181526020018280546102c490610976565b80156103115780601f106102e657610100808354040283529160200191610311565b820191906000526020600020905b8154815290600101906020018083116102f457829003601f168201915b5050505050908060030160009054906101000a900460ff16908060040154905085565b6000600160008381526020019081526020016000206040518060a00160405290816000820154815260200160018201805461036e90610976565b80601f016020809104026020016040519081016040528092919081815260200182805461039a90610976565b80156103e75780601f106103bc576101008083540402835291602001916103e7565b820191906000526020600020905b8154815290600101906020018083116103ca57829003601f168201915b5050505050815260200160028201805461040090610976565b80601f016020809104026020016040519081016040528092919081815260200182805461042c90610976565b80156104795780601f1061044e57610100808354040283529160200191610479565b820191906000526020600020905b81548152906001019060200180831161045c57829003601f168201915b505050505081526020016003820160009054906101000a900460ff16151515158152602001600482015481525050905080606001511581606001901515908115158152505080600160008481526020019081526020016000206000820151816000015560208201518160010190816104f19190610b53565b5060408201518160020190816105079190610b53565b5060608201518160030160006101000a81548160ff021916908315150217905550608082015181600401559050507f389dee00d487dd41dd5bf0f43eeaa5b663b3af022d52368df89d388150295f4582826060015160405161056a929190610c25565b60405180910390a15050565b6000604051905090565b600080fd5b600080fd5b600080fd5b600080fd5b6000601f19601f8301169050919050565b7f4e487b7100000000000000000000000000000000000000000000000000000000600052604160045260246000fd5b6105dd82610594565b810181811067ffffffffffffffff821117156105fc576105fb6105a5565b5b80604052505050565b600061060f610576565b905061061b82826105d4565b919050565b600067ffffffffffffffff82111561063b5761063a6105a5565b5b61064482610594565b9050602081019050919050565b82818337600083830152505050565b600061067361066e84610620565b610605565b90508281526020810184848401111561068f5761068e61058f565b5b61069a848285610651565b509392505050565b600082601f8301126106b7576106b661058a565b5b81356106c7848260208601610660565b91505092915050565b600080604083850312156106e7576106e6610580565b5b600083013567ffffffffffffffff81111561070557610704610585565b5b610711858286016106a2565b925050602083013567ffffffffffffffff81111561073257610731610585565b5b61073e858286016106a2565b9150509250929050565b6000819050919050565b61075b81610748565b82525050565b60006020820190506107766000830184610752565b92915050565b61078581610748565b811461079057600080fd5b50565b6000813590506107a28161077c565b92915050565b6000602082840312156107be576107bd610580565b5b60006107cc84828501610793565b91505092915050565b600081519050919050565b600082825260208201905092915050565b60005b8381101561080f5780820151818401526020810190506107f4565b60008484015250505050565b6000610826826107d5565b61083081856107e0565b93506108408185602086016107f1565b61084981610594565b840191505092915050565b60008115159050919050565b61086981610854565b82525050565b600060a0820190506108846000830188610752565b8181036020830152610896818761081b565b905081810360408301526108aa818661081b565b90506108b96060830185610860565b6108c66080830184610752565b9695505050505050565b7f4e487b7100000000000000000000000000000000000000000000000000000000600052601160045260246000fd5b600061090a82610748565b91507fffffffffffffffffffffffffffffffffffffffffffffffffffffffffffffffff820361093c5761093b6108d0565b5b600182019050919050565b7f4e487b7100000000000000000000000000000000000000000000000000000000600052602260045260246000fd5b6000600282049050600182168061098e57607f821691505b6020821081036109a1576109a0610947565b5b50919050565b60008190508160005260206000209050919050565b60006020601f8301049050919050565b600082821b905092915050565b600060088302610a097fffffffffffffffffffffffffffffffffffffffffffffffffffffffffffffffff826109cc565b610a1386836109cc565b95508019841693508086168417925050509392505050565b6000819050919050565b6000610a50610a4b610a4684610748565b610a2b565b610748565b9050919050565b6000819050919050565b610a6a83610a35565b610a7e610a7682610a57565b8484546109d9565b825550505050565b600090565b610a93610a86565b610a9e818484610a61565b505050565b5b81811015610ac257610ab7600082610a8b565b600181019050610aa4565b5050565b601f821115610b0757610ad8816109a7565b610ae1846109bc565b81016020851015610af0578190505b610b04610afc856109bc565b830182610aa3565b50505b505050565b600082821c905092915050565b6000610b2a60001984600802610b0c565b1980831691505092915050565b6000610b438383610b19565b9150826002028217905092915050565b610b5c826107d5565b67ffffffffffffffff811115610b7557610b746105a5565b5b610b7f8254610976565b610b8a828285610ac6565b600060209050601f831160018114610bbd5760008415610bab578287015190505b610bb58582610b37565b865550610c1d565b601f198416610bcb866109a7565b60005b82811015610bf357848901518255600182019150602085019450602081019050610bce565b86831015610c105784890151610c0c601f891682610b19565b8355505b6001600288020188555050505b505050505050565b6000604082019050610c3a6000830185610752565b610c476020830184610860565b939250505056fea26469706673582212206bb9ad4372e770c54ed190535897e5af27b781d1be1da2695ac06dee98ec023464736f6c63430008110033",
  "immutableReferences": {},
  "source": "// SPDX-License-Identifier: MIT\r\n\r\npragma solidity ^0.8.6;\r\n\r\ncontract TaskContract {\r\n\r\n    uint256 public taskCounter = 0;\r\n\r\n    constructor(){\r\n        createTask('Mi primer tarea de ejemplo', 'Tengo que hacer algo');\r\n    }\r\n\r\n    struct Task {\r\n        uint id;\r\n        string title;\r\n        string description;\r\n        bool done;\r\n        uint createdAt;\r\n    }\r\n\r\n    mapping (uint => Task) public tasks;\r\n\r\n    function createTask(string memory _title, string memory _description) public {\r\n        taskCounter++;\r\n        tasks[taskCounter] = Task(taskCounter, _title, _description, false, block.timestamp);\r\n        emit TaskCreated(taskCounter, _title, _description, false, block.timestamp);\r\n    }\r\n\r\n    function toggleDone(uint256 _id) public {\r\n        Task memory _task = tasks[_id];\r\n        _task.done = !_task.done;\r\n        tasks[_id] = _task;\r\n        emit TaskToggleDone(_id, _task.done);\r\n    }\r\n    \r\n    event TaskCreated(\r\n        uint id,\r\n        string title,\r\n        string description,\r\n        bool done,\r\n        uint createdAt\r\n    );\r\n\r\n    event TaskToggleDone(\r\n        uint id, \r\n        bool done\r\n    );\r\n\r\n}\r\n",
  "sourcePath": "C:\\Users\\mario.cuberos\\Documents\\Solidity\\myfirstproject\\contracts\\01-TaskContract.sol",
  "compiler": {
    "name": "solc",
    "version": "0.8.17+commit.8df45f5f.Emscripten.clang"
  },
  "schemaVersion": "3.4.10",
  "updatedAt": "2022-11-11T01:00:48.380Z",
  "networkType": "ethereum",
  "devdoc": {
    "kind": "dev",
    "methods": {},
    "version": 1
  },
  "userdoc": {
    "kind": "user",
    "methods": {},
    "version": 1
  }
}